{
  "contractName": "GroceryList",
  "abi": [
    {
      "constant": true,
      "inputs": [],
      "name": "groceryCount",
      "outputs": [
        {
          "name": "",
          "type": "uint256"
        }
      ],
      "payable": false,
      "stateMutability": "view",
      "type": "function",
      "signature": "0xbd20b313"
    },
    {
      "constant": true,
      "inputs": [
        {
          "name": "",
          "type": "uint256"
        }
      ],
      "name": "groceryList",
      "outputs": [
        {
          "name": "id",
          "type": "uint256"
        },
        {
          "name": "content",
          "type": "string"
        },
        {
          "name": "bought",
          "type": "bool"
        }
      ],
      "payable": false,
      "stateMutability": "view",
      "type": "function",
      "signature": "0xe29ff792"
    },
    {
      "inputs": [],
      "payable": false,
      "stateMutability": "nonpayable",
      "type": "constructor",
      "signature": "constructor"
    },
    {
      "anonymous": false,
      "inputs": [
        {
          "indexed": false,
          "name": "id",
          "type": "uint256"
        },
        {
          "indexed": false,
          "name": "content",
          "type": "string"
        },
        {
          "indexed": false,
          "name": "bought",
          "type": "bool"
        }
      ],
      "name": "GroceryItemCreated",
      "type": "event",
      "signature": "0x59ab461b121f15c3450abd7e1e21c8eb0f3089d5d54cf4d54c99189f87a9243a"
    },
    {
      "anonymous": false,
      "inputs": [
        {
          "indexed": false,
          "name": "id",
          "type": "uint256"
        },
        {
          "indexed": false,
          "name": "bought",
          "type": "bool"
        }
      ],
      "name": "GroceryItemUpdated",
      "type": "event",
      "signature": "0xddf54ef8d07ef8f882a16ca56e87b8dd855cba0c297cb1bc6b6bb98e1c0eb061"
    },
    {
      "constant": false,
      "inputs": [
        {
          "name": "_content",
          "type": "string"
        }
      ],
      "name": "createItem",
      "outputs": [],
      "payable": false,
      "stateMutability": "nonpayable",
      "type": "function",
      "signature": "0x3d54eebb"
    },
    {
      "constant": false,
      "inputs": [
        {
          "name": "_id",
          "type": "uint256"
        }
      ],
      "name": "toggleBought",
      "outputs": [],
      "payable": false,
      "stateMutability": "nonpayable",
      "type": "function",
      "signature": "0x56f4225b"
    }
  ],
  "bytecode": "0x60806040526000805534801561001457600080fd5b506100626040805190810160405280600c81526020017f3220646f7a656e20656767730000000000000000000000000000000000000000815250610067640100000000026401000000009004565b610252565b600080815480929190600101919050555060606040519081016040528060005481526020018281526020016000151581525060016000805481526020019081526020016000206000820151816000015560208201518160010190805190602001906100d39291906101ad565b5060408201518160020160006101000a81548160ff0219169083151502179055509050507f59ab461b121f15c3450abd7e1e21c8eb0f3089d5d54cf4d54c99189f87a9243a600054826000604051808481526020018060200183151515158152602001828103825284818151815260200191508051906020019080838360005b8381101561016e578082015181840152602081019050610153565b50505050905090810190601f16801561019b5780820380516001836020036101000a031916815260200191505b5094505050505060405180910390a150565b828054600181600116156101000203166002900490600052602060002090601f016020900481019282601f106101ee57805160ff191683800117855561021c565b8280016001018555821561021c579182015b8281111561021b578251825591602001919060010190610200565b5b509050610229919061022d565b5090565b61024f91905b8082111561024b576000816000905550600101610233565b5090565b90565b610719806102616000396000f3fe608060405260043610610062576000357c0100000000000000000000000000000000000000000000000000000000900463ffffffff1680633d54eebb1461006757806356f4225b1461012f578063bd20b3131461016a578063e29ff79214610195575b600080fd5b34801561007357600080fd5b5061012d6004803603602081101561008a57600080fd5b81019080803590602001906401000000008111156100a757600080fd5b8201836020820111156100b957600080fd5b803590602001918460018302840111640100000000831117156100db57600080fd5b91908080601f016020809104026020016040519081016040528093929190818152602001838380828437600081840152601f19601f82011690508083019250505050505050919291929050505061025b565b005b34801561013b57600080fd5b506101686004803603602081101561015257600080fd5b81019080803590602001909291905050506103a1565b005b34801561017657600080fd5b5061017f61054f565b6040518082815260200191505060405180910390f35b3480156101a157600080fd5b506101ce600480360360208110156101b857600080fd5b8101908080359060200190929190505050610555565b604051808481526020018060200183151515158152602001828103825284818151815260200191508051906020019080838360005b8381101561021e578082015181840152602081019050610203565b50505050905090810190601f16801561024b5780820380516001836020036101000a031916815260200191505b5094505050505060405180910390f35b600080815480929190600101919050555060606040519081016040528060005481526020018281526020016000151581525060016000805481526020019081526020016000206000820151816000015560208201518160010190805190602001906102c7929190610624565b5060408201518160020160006101000a81548160ff0219169083151502179055509050507f59ab461b121f15c3450abd7e1e21c8eb0f3089d5d54cf4d54c99189f87a9243a600054826000604051808481526020018060200183151515158152602001828103825284818151815260200191508051906020019080838360005b83811015610362578082015181840152602081019050610347565b50505050905090810190601f16801561038f5780820380516001836020036101000a031916815260200191505b5094505050505060405180910390a150565b6103a96106a4565b600160008381526020019081526020016000206060604051908101604052908160008201548152602001600182018054600181600116156101000203166002900480601f01602080910402602001604051908101604052809291908181526020018280546001816001161561010002031660029004801561046b5780601f106104405761010080835404028352916020019161046b565b820191906000526020600020905b81548152906001019060200180831161044e57829003601f168201915b505050505081526020016002820160009054906101000a900460ff161515151581525050905080604001511581604001901515908115158152505080600160008481526020019081526020016000206000820151816000015560208201518160010190805190602001906104e0929190610624565b5060408201518160020160006101000a81548160ff0219169083151502179055509050507fddf54ef8d07ef8f882a16ca56e87b8dd855cba0c297cb1bc6b6bb98e1c0eb06182826040015160405180838152602001821515151581526020019250505060405180910390a15050565b60005481565b6001602052806000526040600020600091509050806000015490806001018054600181600116156101000203166002900480601f0160208091040260200160405190810160405280929190818152602001828054600181600116156101000203166002900480156106075780601f106105dc57610100808354040283529160200191610607565b820191906000526020600020905b8154815290600101906020018083116105ea57829003601f168201915b5050505050908060020160009054906101000a900460ff16905083565b828054600181600116156101000203166002900490600052602060002090601f016020900481019282601f1061066557805160ff1916838001178555610693565b82800160010185558215610693579182015b82811115610692578251825591602001919060010190610677565b5b5090506106a091906106c8565b5090565b60606040519081016040528060008152602001606081526020016000151581525090565b6106ea91905b808211156106e65760008160009055506001016106ce565b5090565b9056fea165627a7a72305820b7c4123fb4af4346622c2176bb225cd1c5e8c4251c6cab115b2b3bfad4b38f640029",
  "source": "pragma solidity ^0.5.0;\n\ncontract GroceryList {\n    uint256 public groceryCount = 0;\n\n    struct GroceryItem {\n        uint256 id;\n        string content;\n        bool bought;\n    }\n\n  event GroceryItemCreated(\n    uint id,\n    string content,\n    bool bought\n  );\n\n  event GroceryItemUpdated(\n    uint id,\n    bool bought\n  );\n\n\n    mapping (uint256=>GroceryItem) public groceryList;\n    constructor() public {\n        createItem(\"2 dozen eggs\");\n    }\n\n    function createItem(string memory _content) public {\n        groceryCount++;\n        groceryList[groceryCount] = GroceryItem(groceryCount, _content, false);\n        emit GroceryItemCreated(groceryCount, _content, false);\n\n    }\n\n\n    function toggleBought(uint _id) public {\n        GroceryItem memory _groceryItem = groceryList[_id];\n        _groceryItem.bought = !_groceryItem.bought;\n        groceryList[_id] = _groceryItem;\n        emit GroceryItemUpdated(_id, _groceryItem.bought);\n\n    }\n\n}\n",
  "sourcePath": "/Users/owaisali/Desktop/ows/proj/bchain/todo/contracts/GroceryList.sol",
  "compiler": {
    "name": "solc",
    "version": "0.5.0+commit.1d4f565a.Emscripten.clang"
  },
  "schemaVersion": "3.0.1",
  "updatedAt": "2022-06-27T02:59:11.727Z",
  "devdoc": {
    "methods": {}
  },
  "userdoc": {
    "methods": {}
  }
}